:20400A000400EE0E180E4D0D8E0CDA0B2F0B8F0AF7096809E1086108E90777070C07A706D3
:20402A004706ED0598054705FC04B40470043104F403BC03860353032403F602CC02A402C5
:20404A007E025A0238021802FA01DE01C301AA0192017B01660152013F012D011C010C017C
:20406A00FD00EF00E100D500C900BE00B300A9009F0096008E0086007F00770071006A0097
:20408A0064005F005900540050004B00470043003F003C003800350032002F002D002A00E1
:2040AA00280026002400220020001E001C001B001900180016001500140013001200110047
:2040CA0010002838CDE740DD210A40C3D5403ACC403D2005CDE9413E2832CC40C921D8400D
:2040EA00CD3B43CD1343216341CDE241C906F4ED4901C0F6ED49ED7106F4ED790180F6ED8B
:20410A0049ED71C90F00040005040007040F00040C05040007040F00040005040C07048018
:20412A000F05040009040000050F05040C09040000050F05040009040C0005800F07040045
:20414A000B040002050F07040C0B040002050F0704000B040C02058081841F890001FF0F8B
:20416A000B02100B04000704828080890800FF0F0B03100B0500070482820F0603000B027B
:20418A00000205890A01FF0F0B02100B02000205828080890B01FF0F0602100B03000205E9
:2041AA00828080890F01FF0F0902100B04000205828080890E01FF0F0B02100B0100020543
:2041CA00828080890C01FF0F0203100B03000205828282810000000022DE4122E041C92A07
:2041EA00E0417EFE802007CD0B4323C3B342FE81200A2ADE4122E041CDE941C9FE822004E2
:20420A0023C3B342FE83200C3ACD40CB9F32CD40CDB742C9FE84200C3ACD40CBA732CD40E7
:20422A00CDB742C9FE85200C3ACD40CBAF32CD40CDB742C9FE8620103ACD40CBDF32CD40C3
:20424A002322E041CDE941C9FE8720103ACD40CBE732CD402322E041CDE941C9FE88201065
:20426A003ACD40CBEF32CD402322E041CDE941C9FE89201D237E0E0DCDF740237E0E0CCDC2
:20428A00F740237E0E0BCDF7402322E041CDE941C9CD13430E081600CDC6420E091601CDDA
:2042AA00C6420E0A1602CDC64222E041C9237E0E06CDF7402322E041CDE941C97ECDF7407A
:2042CA00237A46234E23E5CDD642E1C9FE0020081E001601CDFB42C9FE0120081E0216035B
:2042EA00CDFB42C9FE0220081E041605CDFB42C9C9D5CD1C43D17D4BCDF7407C4ACDF74078
:20430A00C93E3F0E07CDF740C93ACD400E07CDF740C958CD2F4379FE0020027CC9CB3CCBFB
:20432A001D0D20F9C9210C40160019195E2356EBC92256433EC3F3323800214C4322390003
:20434A00FBC9F3F5C5D5E5DDE5FDE5CD0000FDE1DDE1E1D1C1F1FBED4D7C57260001004048
:20436A0009AEA26FC921004006097E23A610FC3C6FC906F5ED781F30FBC99DF30182F7ED01
:20438A0049010EF458ED4901C0F650ED49ED710192F7ED493E400E0A21004042ED7943ED0F
:0C43AA00A23C0D20F60182F7ED49FBC992
:00000001FF
